:020000040000fa
:080000000002040000000000f2
:020000040000fa
:040008006a04000086
:020000040000fa
:04000c00cc02000022
:020000040000fa
:040010000e030000db
:020000040000fa
:04001400ec020000fa
:020000040000fa
:040018002e030000b3
:020000040000fa
:04001c006a04000072
:020000040000fa
:040020006a0400006e
:020000040000fa
:040024006a0400006a
:020000040000fa
:040028006a04000066
:020000040000fa
:04002c006a04000062
:020000040000fa
:040030006a0400005e
:020000040000fa
:040034004e03000077
:020000040000fa
:040038006a04000056
:020000040000fa
:04003c006a04000052
:020000040000fa
:040040006a0400004e
:020000040000fa
:040044006a0400004a
:020000040000fa
:040048006a04000046
:020000040000fa
:04004c006a04000042
:020000040000fa
:040050006a0400003e
:020000040000fa
:040054006a0400003a
:020000040000fa
:040058006a04000036
:020000040000fa
:04005c006a04000032
:020000040000fa
:040060006a0400002e
:020000040000fa
:040064006a0400002a
:020000040000fa
:040068006a04000026
:020000040000fa
:04006c006a04000022
:020000040000fa
:040070006a0400001e
:020000040000fa
:040074006a0400001a
:020000040000fa
:040078006a04000016
:020000040000fa
:04007c006a04000012
:020000040000fa
:040080006a0400000e
:020000040000fa
:040084006a0400000a
:020000040000fa
:040088006a04000006
:020000040000fa
:04008c006a04000002
:020000040000fa
:040090006a040000fe
:020000040000fa
:040094006a040000fa
:020000040000fa
:040098006a040000f6
:020000040000fa
:04009c006a040000f2
:020000040000fa
:0400a0006a040000ee
:020000040000fa
:0400a4006a040000ea
:020000040000fa
:0400a8006a040000e6
:020000040000fa
:0400ac006a040000e2
:020000040000fa
:0400b0006a040000de
:020000040000fa
:0400b4006a040000da
:020000040000fa
:0400b8006a040000d6
:020000040000fa
:0400bc006a040000d2
:020000040000fa
:0400c0006a040000ce
:020000040000fa
:0400c4006a040000ca
:020000040000fa
:0400c8006a040000c6
:020000040000fa
:0400cc006a040000c2
:020000040000fa
:0400d0006a040000be
:020000040000fa
:0400d4006a040000ba
:020000040000fa
:0400d8006a040000b6
:020000040000fa
:0400dc006a040000b2
:020000040000fa
:0400e0006a040000ae
:020000040000fa
:0400e4006a040000aa
:020000040000fa
:0400e8006a040000a6
:020000040000fa
:0400ec006a040000a2
:020000040000fa
:0400f0006a0400009e
:020000040000fa
:0400f4006a0400009a
:020000040000fa
:0400f8006a04000096
:020000040000fa
:0400fc006a04000092
:020000040000fa
:040100006a0400008d
:020000040000fa
:040104006a04000089
:020000040000fa
:040108006a04000085
:020000040000fa
:04010c006a04000081
:020000040000fa
:040110006a0400007d
:020000040000fa
:040114006a04000079
:020000040000fa
:040118006a04000075
:020000040000fa
:04011c006a04000071
:020000040000fa
:040120006a0400006d
:020000040000fa
:040124006a04000069
:020000040000fa
:040128006a04000065
:020000040000fa
:04012c006a04000061
:020000040000fa
:040130006a0400005d
:020000040000fa
:040134006a04000059
:020000040000fa
:040138006a04000055
:020000040000fa
:04013c006a04000051
:020000040000fa
:040140006a0400004d
:020000040000fa
:040144006a04000049
:020000040000fa
:040148006a04000045
:020000040000fa
:040208006a04000084
:020000040000fa
:04020c00cc02000020
:020000040000fa
:040210000e030000d9
:020000040000fa
:04021400ec020000f8
:020000040000fa
:040218002e030000b1
:020000040000fa
:04021c006a04000070
:020000040000fa
:040220006a0400006c
:020000040000fa
:040224006a04000068
:020000040000fa
:040228006a04000064
:020000040000fa
:04022c006a04000060
:020000040000fa
:040230006a0400005c
:020000040000fa
:040234004e03000075
:020000040000fa
:040238006a04000054
:020000040000fa
:04023c006a04000050
:020000040000fa
:040240006a0400004c
:020000040000fa
:040244006a04000048
:020000040000fa
:040248006a04000044
:020000040000fa
:04024c006a04000040
:020000040000fa
:040250006a0400003c
:020000040000fa
:040254006a04000038
:020000040000fa
:040258006a04000034
:020000040000fa
:04025c006a04000030
:020000040000fa
:040260006a0400002c
:020000040000fa
:040264006a04000028
:020000040000fa
:040268006a04000024
:020000040000fa
:04026c006a04000020
:020000040000fa
:040270006a0400001c
:020000040000fa
:040274006a04000018
:020000040000fa
:040278006a04000014
:020000040000fa
:04027c006a04000010
:020000040000fa
:040280006a0400000c
:020000040000fa
:040284006a04000008
:020000040000fa
:040288006a04000004
:020000040000fa
:04028c006a04000000
:020000040000fa
:040290006a040000fc
:020000040000fa
:040294006a040000f8
:020000040000fa
:040298006a040000f4
:020000040000fa
:04029c006a040000f0
:020000040000fa
:0402a0006a040000ec
:020000040000fa
:0402a4006a040000e8
:020000040000fa
:0402a8006a040000e4
:020000040000fa
:0402ac006a040000e0
:020000040000fa
:0402b0006a040000dc
:020000040000fa
:0402b4006a040000d8
:020000040000fa
:0402b8006a040000d4
:020000040000fa
:0402bc006a040000d0
:020000040000fa
:0402c0006a040000cc
:020000040000fa
:0402c4006a040000c8
:020000040000fa
:0402c8006a040000c4
:020000040000fa
:0402cc006a040000c0
:020000040000fa
:0402d0006a040000bc
:020000040000fa
:0402d4006a040000b8
:020000040000fa
:0402d8006a040000b4
:020000040000fa
:0402dc006a040000b0
:020000040000fa
:0402e0006a040000ac
:020000040000fa
:0402e4006a040000a8
:020000040000fa
:0402e8006a040000a4
:020000040000fa
:0402ec006a040000a0
:020000040000fa
:0402f0006a0400009c
:020000040000fa
:0402f4006a04000098
:020000040000fa
:0402f8006a04000094
:020000040000fa
:0402fc006a04000090
:020000040000fa
:040300006a0400008b
:020000040000fa
:040304006a04000087
:020000040000fa
:040308006a04000083
:020000040000fa
:04030c006a0400007f
:020000040000fa
:040310006a0400007b
:020000040000fa
:040314006a04000077
:020000040000fa
:040318006a04000073
:020000040000fa
:04031c006a0400006f
:020000040000fa
:040320006a0400006b
:020000040000fa
:040324006a04000067
:020000040000fa
:040328006a04000063
:020000040000fa
:04032c006a0400005f
:020000040000fa
:040330006a0400005b
:020000040000fa
:040334006a04000057
:020000040000fa
:040338006a04000053
:020000040000fa
:04033c006a0400004f
:020000040000fa
:040340006a0400004b
:020000040000fa
:040344006a04000047
:020000040000fa
:040348006a04000043
:020000040000fa
:100400000f8920000e7f22000e01880000000000ee
:10041000000020000000e000020032000001200087
:100420002002880014000700400107000000e000df
:1004300003003a0080b220000100200002003700d3
:100440000000200001002000810f70000100320038
:1004500014000700000020000000e000020032004d
:100460000000020000000000da0b020000000000a3
:100470000040da000000fe004440a9000000200017
:100480000000e0000300320000002000a00188000e
:100490004440a800000006008a1f78008b1f7800e7
:1004a0000000060091018800800478000000eb0045
:1004b0001a003700e284440032a0b4009905ba0063
:1004c000e284440032a0b4009906ba00e2844400f9
:1004d00032a0b4000006eb00476fde00fd07b2005b
:1004e000636ce10003003a00ebff07000000eb0043
:1004f0000a003700606ce10004003a00005deb0088
:100500008b05e900fdff3e00040037006168e10053
:10051000010032000086eb000b00070019c7ba008b
:100520001905ba000e04e00003003a000a00e000da
:10053000e0ff3a0000000600fe07b2009e018800be
:100540008a047800f5ff3700395dba008b05e900b1
:100550000c003200295dba008b05e900080032006a
:100560000c00e00003003a00e284440032a0b40032
:10057000f5ff370019ddba008b05e900faff3a00f4
:100580008904e800e184440032a0b40000000600c1
:1005900000000000000000003600f800809fbe0050
:1005a000829fbe00849fbe00869fbe000000fa00ae
:1005b0008020a9000000eb005f0407000080fa0023
:1005c0004f03be004f02be004f01be004f00be00f1
:1005d0003600f900004006003600f800809fbe009b
:1005e000829fbe00849fbe00869fbe000000fa006e
:1005f000560407008040a900100020004e040700a8
:100600000080fa004f03be004f02be004f01be0043
:100610004f00be003600f900004006003600f8002a
:10062000809fbe00829fbe00849fbe00869fbe004a
:100630000000fa008060a900200020003e040700ae
:100640000080fa004f03be004f02be004f01be0003
:100650004f00be003600f900004006003600f800ea
:10066000809fbe00829fbe00849fbe00869fbe000a
:100670000000fa008080a900300020002e0407004e
:100680000080fa004f03be004f02be004f01be00c3
:100690004f00be003600f900004006003600f800aa
:1006a000809fbe00829fbe00849fbe00869fbe00ca
:1006b000889fbe000000fa00001880008000eb0058
:1006c0001e01070002e92300a3df230070010700d9
:1006d0002040880031408800101880008000eb0026
:1006e00016010700d220230083d4230068010700ed
:1006f0000001be0000002000811c24008c000700c7
:1007000000408800114088008041800091418000b5
:10071000a0418800b1418800004180001141800063
:100720002041880031418800e0408000f140800095
:1007300000418800114188006440800075408000bd
:1007400020408000314080000001be000400be0057
:1007500077000700e0408800f1408800e04080001a
:10076000f1408000e2172000d3b3230048010700c6
:100770000004be00004180001141800062962d00ff
:1007800033b12300420107000001be000800be0093
:10079000670007000004be00204180003141800056
:1007a0006011b8003a0107000001be000800be0059
:1007b000600007000002be00a0418000b14180003f
:1007c0000001be000400be005a00070080418800fe
:1007d00091418800804180009141800018c0b300a1
:1007e000d2cc2c00c3f42300b10007000000e000cd
:1007f00001003d000044eb000804e0000500320069
:10080000d0cc2c00c1f423008041880091418800a5
:1008100012003700804180009141800018c0b30071
:100820006011b800a00007000000e00001003400e3
:100830000044eb000804e000040032006000b8004f
:100840008041880091418800040037008041800089
:100850009141800080418800914188008041800062
:100860009141800002002000f331240008010700bc
:100870009100070000007800000c8800c040800054
:100880000000e00002003200c040800000000100d3
:10089000f0882000104078008040e800f0882000b8
:1008a00001487800e088200011c0b30001487800ba
:1008b0008460a9000080fa004f04be004f03be0010
:1008c0004f02be004f01be004f00be003600f900cf
:1008d000004006000040da000000fe000800fa00b8
:1008e000100798002107980032079800be0090007a
:1008f000010f7800070037002e00900010407800ac
:10090000ae0090008100e800210798007701070001
:100910001e0fe9001e0078000000e000f6ff3a001c
:100920003e0090000080fa00000006000000050074
:1009300003f0a200889fbe008a9fbe008c1f780033
:10094000bb000700c20033006450e1004f003200da
:100950006420e1005200320003826c0007003b007b
:100960000905d0000306d000820f54000c065d007c
:100970000200390002003200890178000306780085
:100980008582550004003d000003fd008103fd0049
:100990008502ea008b854200840f720002003b0052
:1009a00060001000e08018006011b8000005eb0046
:1009b0007a28e1000a00390006007800c75ddd00f2
:1009c000f707b200878075002d0037008281710023
:1009d0000a017800610560008180d1000080d300a9
:1009e0008502e900f9ff3b000604400087844800c7
:1009f00002003b0060041400e0841c000988a3008e
:100a0000070032008a8171008281710061016400f7
:100a10008904d1000884d3008b05e8001700370053
:100a20000978a30013003a000b00e0001300340023
:100a30008b05e9000804440089844c000a447400d2
:100a40000978a3000d003a000b00e0000700340015
:100a50008b05e9000804440089844c0001003a0039
:100a60000b0020000978a300f7ff32000001eb0023
:100a700002003700828171000a017800310007000e
:100a80000cf0a70001f0a0007a0037006420e1001c
:100a900002003a00838f6c007a0033000801be0028
:100aa0000200be007300370014002000ac003700c5
:100ab000f4ff2f00aa0037000001be004700070026
:100ac0000470a70003f0a1006509b1001600320010
:100ad0000d0035006828e10006003500f0ff2f000a
:100ae000f1ff27000300e00013003b000100280095
:100af0000000050000004000818048008502e900f8
:100b0000fcff3a0008003700f88f420002003c006a
:100b10008000eb00000005008100d1000080d300c0
:100b20008502e800fcff3a000300e00002003b0001
:100b300060001000e0801800000006006011b8009e
:100b4000a200370081002000618055000b003d00ad
:100b50000b00200061fe2f000100e1001d003400a9
:100b600082817100610164008904d1000884d3008e
:100b70000000e800faff3a00710020006100640004
:100b800003007000020060000900320061044400ac
:100b9000e0844c000988a500050032008b05e800c0
:100ba0006808e10002003a008904d1000884d300fb
:100bb000f20f20000258e10005003d00c75ddd0096
:100bc000f907b2008980750008007800000006006f
:100bd0000bf827008b00780000000500c70ade0034
:100be000f107b200f50fb20008003200e1cf420079
:100bf000020032000170a00024000500810f700087
:100c0000010032000408050044000500810f700057
:100c100002003a00140005008502e90000004000cf
:100c200081c04800fcff3b000170a00024000500cb
:100c30000004be00e9ff07000003be000405be007b
:100c40000200be00e5ff0700844f750000000600ab
:100c50000200be006450e100050036006420e1009f
:100c6000020036000968a30001003a000800be0037
:100c70000160a0004f0678004f05be004f04be0083
:100c800000000600f0ff2f00f1ff2700f9ff3700fa
:100c9000889fbe008a9fbe008c1f7800e4ff07007b
:100ca000ebff330003866c006450e1002400320047
:100cb0006420e100270032006150e1002200320090
:100cc0006120e100210032008b854200eb07b1007a
:100cd0000134b800003ab8000804420089844a0090
:100ce000013ab8000030b8008880400009014a008d
:100cf00004003300000040008180480002014900e8
:100d00008b05e900c909dd00830170000100320094
:100d100013002000c814de004814dd004709de007f
:100d20001200b200c808de000884700085ff0700ca
:100d300001f0a1000cf0a70001f0a000cdff3700ea
:100d40006120e100cfff32000801be000200be00ba
:100d5000f7ff37006150e100fcff3a00c9ff3700a0
:100d6000889fbe008a9fbe00841f7800b0ff0700e6
:100d70004f00780011003300f0ff2f00838f6c00cc
:100d800006003b00040565000a00a70008003700c4
:100d900009f0a6001000200008003700820f540060
:100da000838f5c00030039001000200001003e002a
:100db0000000200009f0a7000000ea004f05be0077
:100dc0004f04be000000e00000000600889fbe0047
:100dd0008a9fbe00008270000402710004827100cc
:100de000260032000004be000200be006011b80000
:100df0006b092000950220000182cf000a00390013
:100e00000541b1000082cf00070039000541b10063
:100e10000982cf00040039000541b1000882cf00eb
:100e2000010039000541b1000542520012003200b4
:100e30000a003b0082817100610164008100d100e1
:100e40000080d3008984d3000884d3008b05e80098
:100e50000442e800f7ff3a000700370008044400a6
:100e600089844c0000004800818048008b05e9001f
:100e70000442e900f9ff3a0032ff07004f05be00c7
:080e80004f04be000000060053
:020000040000fa
:100e88000000fa0080002000001188002222ef00f4
:100e9800700020004011880021e2a8002342a80029
:100ea8000080fa00000006000000fa0000000000c0
:100eb80010118000610060000000e000fcff3200bb
:100ec80010118000620060000000e00001003200a4
:100ed8002222a90030118000004078000080fa002a
:100ee800000006000200fa00004f78000000000031
:100ef8001111800000202000008060000000e00048
:100f0800fbff3a001e80fb00201188000080fa00d9
:100f1800000006000000fa00101180000040780070
:100f2800614060000080fb0000f0a7000000ea00bc
:100f38000000ea004f00de00004078000080fa0060
:100f4800000006000000fa001111800000102000c7
:100f5800008060000000e0000700320011118000ee
:100f680000402000008060000000e0000200320025
:100f780010002000010037000000eb00004078005e
:100f88000080fa00000006000000fa00101180003e
:100f98004800de00614060000080fb0000f0a70010
:100fa8000000ea000000ea004f00de000040780080
:100fb8000080fa00000006000000fa00101180000e
:100fc8000080fa00000006000000fa00d1ff0700c8
:100fd8000080fa00000006000000fa00d9ff0700b0
:100fe8000080fa00000006000000fa00c9ff0700b0
:100ff8000080fa00000006000000fa00e2ff070087
:101008000080fa00000006000000fa000021ef004e
:10101800f0762100100888000001280020088800c8
:10102800c04080000000e00002003a000086200076
:10103800240007008460a9009460a800e0882000cc
:101048008040eb00014878000080fa0000000600ac
:101058000200fa00000f78009e007800110888004e
:10106800e08820008040eb00014878000080fa000a
:10107800000006000000fa00100880000080fa0056
:10108800000006000200fa00000f78009e007800b9
:1010980001088800e08820008040eb0001487800c3
:1010a8000080fa00000006000000fa000008800036
:1010b8000080fa00000006000000fa000080fa0034
:1010c800000006000200fa00000f78009460a900f2
:1010d8009e007800c14088009460a8000080fa0053
:1010e800000006000000fa00e08820008040eb00c5
:1010f800014878009460a80005e1a8000080fa0083
:10110800000006000000fa0005e1a9009460a900ab
:101118000080fa00000006000200fa00e0882000c3
:10112800104f78001e4078000004e00003003200f1
:10113800e08820008040eb00014878001e407800dd
:101148000080fa00000006000000fa00f088200085
:10115800104078000080fb000080fa0000000600c4
:101168000000fa00f08820008040eb000148780079
:101178000080fa00000006000000fa000621ef00d7
:10118800f009200060088800000028008008880016
:10119800c08820008040eb00014878000080fa00f9
:1011a800000006000000fa0021048000000820006a
:1011b800008060000000e00009003200d0882000b4
:1011c800104078008040e800d0882000014878006e
:1011d800c088200011c0b3000148780084e0a9004d
:1011e8000080fa00000006000200fa00000f7800f4
:1011f8009e00780061088800c08820008040eb00cd
:10120800014878000080fa00000006000000fa009b
:10121800600880000080fa00000006000200fa0062
:10122800000f78009e00780031088800c0882000f0
:101238008040eb00014878000080fa0000000600ba
:101248000000fa00300880000080fa000000060064
:101258000000fa00c08820008040eb0001487800b8
:1012680011e1a8000080fa00000006000000fa0062
:1012780011e1a9000080fa00000006000200fa004f
:10128800c0882000104f78001e4078000004e0005d
:1012980003003200c08820008040eb00014878003d
:1012a8001e4078000080fa00000006000000fa00e6
:1012b800d0882000104078000080fb000080fa00f1
:1012c800000006000000fa00d08820008040eb00f3
:1012d800014878000080fa00000006000000fa00cb
:1012e800400e28000019880080402000101988004e
:1012f80000f02900201988002823ef003000200082
:1013080080198800101980004200de006f406000dc
:101318001ae8b7000080fa00000006000000fa0092
:101328002023a8000080fa00000006000000fa0050
:101338002023a9000080fa00000006000600fa0039
:101348002007980000302000100798000000eb00ec
:10135800000f78000b0037001e00780000004000e6
:10136800ae009000008040009e0090009100780040
:10137800010878001e0090000080e800100798001f
:101388001e0fe8001ac8bf000080fb009e0f500027
:10139800f1ff3d001e0078000080fa000000060002
:1013a8000000fa00001880000080fa000000060023
:1013b8000000fa00001980000040780061406000d9
:1013c8000080fb0000f0a7000000ea000000ea002f
:1013d8004f00de00004078000080fa0000000600a0
:1013e8000200fa00000f78009e007800411988007a
:1013f8000080fa00000006000200fa00000f7800e2
:101408001e007800f6ff0700c4ff0700c7ff0700ab
:1014180000000000e6ff07000004a2000004e0004e
:10142800fcff3a00deff07000080fa00000006001b
:101438000000fa0085a0a9000080fa00000006005c
:101448000000fa008021ef008221ef0060002000f8
:10145800200c8800200c8000004078006740600065
:101468000080fb00a04088000080fa000000060011
:101478000000fa000080fa00000006000000fa00f0
:1014880020048000640060000000e00002003200d8
:10149800f7ff07008440a9000080fa00000006005a
:1014a8000000fa00a040800000407800674060001b
:1014b8000080fb0067006000220c800081ff2f0085
:1014c8008100610001007000200c88000080fa0093
:1014d800000006000000fa00210c800080ff2f00a9
:1014e80000806000200c88000080fa0000000600e0
:1014f8000200fa00000f78009e007800010c8800b6
:101508000080fa00000006000200fa00000f7800d0
:101518009e007800110c88000080fa000000060088
:101528000000fa00200480004200de0061406000f4
:101538000080fb0000f0a7000000ea000000ea00bd
:101548004f00de00004078000080fa00000006002e
:101558000400fa00100798001e0090000000e00048
:101568000a003a00200c80004400de006140600060
:101578000080fb0000f0a7000000ea000000ea007d
:101588004f00de00004f7800010037000000000027
:101598001e4078000080fa00000006000000fa00f3
:1015a800c422ef00cc22ef00700120000016880052
:1015b800f09f2f00401688006820ef006a20ef0097
:1015c800c622ef00ce22ef002c23ef00113a800054
:1015d800f00b2000008160006004200071052000ed
:1015e8002374200080497800814978008249780076
:1015f80041368000f00f2e0080806000003020000f
:1016080001007000403688005136800000fe2f002f
:10161800008060002001b30050368800103a800036
:10162800000178000260a00060042000710520001d
:101638002374200080497800814978008249780025
:081648000080fa00000006001a
:020000040000fa
:101650001408000002000000000000006c080000f8
:10166000200000000000000016080000020000003a
:1016700002000000ffff00008c08000002000000d4
:10168000000000008e0800000200000000000000c2
:101690001808000002000000000000001a08000006
:1016a00002000000000000001c08000050000000c4
:1016b000000000000c08000008000000020000000c
:1016c0000000200041000000d040000000080000a1
:0c16d0000c000000000000000000000002
:020000040000fa
:1016dc000000fa0000002300203a88004827ef00a1
:1016ec007027ef007227ef007427ef001200200024
:1016fc0080072000a1092000337420008049780065
:10170c0081497800824978000001eb0060042000d8
:10171c0071052000237420008049780081497800ed
:10172c00824978000080fa00000006000200fa00ee
:10173c00000f78009e007800b1408800ffff370052
:10174c000000fa00c0862000800778004088200046
:10175c00000188000080fa00000006000000fa007a
:10176c008dff070008000700d9ff0700c3fd070025
:10177c00d9fe070031ff07007efe070021fe07009f
:10178c000080fa00000006000000fa00210580002d
:10179c00f0ff28000080600000c0a0002005880039
:1017ac000080fa00000006000000fa00ebff0700c2
:0417bc00ffff3700f4
:020000040000fa
:020000040001f9
:0457f800bff90000f5
:020000040000fa
:020000040001f9
:0457fc007f3d0000ed
:00000001FF
